:020000040000FA
:04000000BAEF01F062
:08000800056ED8CF06F0E0CF31
:1000100007F00001E9CF0DF0EACF08F0E1CF09F0D9
:10002000E2CF0AF0D9CF0BF0DACF0CF0F3CF14F017
:10003000F4CF15F0FACF16F000C00FF001C010F0A9
:1000400002C011F003C012F004C013F09DAA2CEFFF
:1000500000F09EBA4FEF00F00FC000F010C001F0AA
:1000600011C002F012C003F013C004F00E8E0DC0D8
:10007000E9FF08C0EAFF09C0E1FF0AC0E2FF0BC0C8
:10008000D9FF0CC0DAFF14C0F3FF15C0F4FF16C08F
:10009000FAFF055007C0E0FF06C0D8FF10009EAA77
:1000A000FED7AECF2EF036523FE12E50AA0A07E01F
:1000B000C90A12E0040A1DE00E0A28E034D0050E39
:1000C000316E036A3650220FE96E000E0320EA6E8D
:1000D000AA0EEF6E362A27D0020E316E036A365012
:1000E000220FE96E000E0320EA6E630EEF6E362AD1
:1000F0001AD0020E316E036A3650220FE96E000EDE
:100100000320EA6E670EEF6E362A0DD0020E316EB6
:10011000036A3650220FE96E000E0320EA6E690E64
:10012000EF6E362A00D01CD036521AE0010E36246B
:10013000315C0CE1036A3650220FE96E000E032099
:10014000EA6E2EC0EFFF366A35820AD0036A365057
:10015000220FE96E000E0320EA6E2EC0EFFF362A52
:100160009E9A2CEF00F094948B94C95037C0C9FF2D
:10017000C7A0FED794948B84000CEA6A660EE96EE1
:10018000EF500EE0050E016E006A002EFED7012E24
:10019000FBD72E0E006E002EFED700D0EF2EF2D72A
:1001A000000C2C6A2C50090810E393908A809392DB
:1001B0008A82640E666EE1DF93908A9093928A92AF
:1001C000640E666EDADF2C2AEDD7000C290E376E2E
:1001D0002E0E386E060E396E070E3A6ED30E3B6E3B
:1001E000910E3C6EFF0E3D6E0C0E3E6E050E3F6E88
:1001F000406A416A0C0E426E436A210E446E650EDF
:10020000456E6A0E466E2D0E476E3B0E486E130EFF
:10021000496E220E4A6EF80E4B6E620E4C6E070E41
:100220004D6E300E4E6E180E4F6E1D0E506E1C0E23
:10023000516EC70E526E536AB00E546E870E556ED5
:100240006B0E566EF80E576EB60E586E100E596E37
:10025000EA0E5A6E2A0E5B6E5C6A1F0E5D6E410ED0
:100260005E6E5F6A590E606E7F0E616E3F0E626E4B
:10027000880E636E310E646E090E656E94948B94D5
:10028000948282A202D08DDFFBD7C950400EC96E86
:10029000C7A0FED72C6A2C502E0810E3036A2C50FE
:1002A000370FE96E000E0320EA6EEFCF66F0C950FB
:1002B00066C0C9FFC7A0FED72C2AEDD794948B84C3
:1002C000F2EF01F094948B94C950F80EC96EC7A058
:1002D000FED7C950F80EC96EC7A0FED7C9CF2FF000
:1002E000C950F50EC96EC7A0FED7C950C96AC7A0CC
:1002F000FED7C9CF30F0C950FA0EC96EC7A0FED7DD
:10030000C950C96AC7A0FED7C9CF33F0C950FB0E88
:10031000C96EC7A0FED7C950C96AC7A0FED7C9CF4A
:1003200034F094948B8435902FBE3580000CCADF56
:10033000302C01D006D0360E376E15DF010E666EFA
:100340001CDF330E376E0FDF010E666E16DFF3EF24
:1003500001F094948B9437C039F0C95037C0C9FF6D
:10036000C7A0FED7C95038C0C9FFC7A0FED7949414
:100370008B84000CF86AD09E0D8EEA6AE96A620EE0
:10038000D36E400E9B6ED350B896190EAF6EA60E6C
:10039000AC6E900EAB6EC150C00B0F09C16E070E54
:1003A000B46E2C6A2D6A2E6A2F6A306A316A326AFC
:1003B000336A346A35903592366A600ED36E400ED9
:1003C0009B6ED350C69A949A94889496200EC66ECB
:1003D000000EC76EC78C94948B84D180300E376E1C
:1003E000C2DEF4D6A4D7DDDE070E376E080E386EF7
:1003F000B0DF080E376E040E386EABDF060E376EB8
:10040000050E386EA6DF170E376E300E386EA1DF80
:10041000180E376E080E386E9CDF3E0E376E0F0ECC
:10042000386E97DF9D8AC00EF212040035B2DED01E
:1004300049DF30500D0806E130500E0803E130501E
:100440000F0803E0340E376E8EDE3050110803E1E2
:100450003A0E376E88DE35A0C9D093928A82949482
:100460008B94C950FF0EC96EC7A0FED7C950C96A88
:10047000C7A0FED7C9CF32F03250AA0A0BE0C90A92
:1004800036E0060A52E0020AD8B46DD00E0AD8B49B
:1004900088D0A5D02D6A2D5003080FE3036A2D5094
:1004A000180FE96E000E0320EA6EC950C96AC7A092
:1004B000FED7C9CFEFFF2D2AEED794948B84AA0ED6
:1004C0009EA8FED7AD6E2D6A2D5003080FE3036A78
:1004D0002D50180FE96E000E0320EA6EEFCF37F0B3
:1004E00037509EA8FED7AD6E2D2AEED77BD02D6A51
:1004F0002D5003080FE3036A2D50180FE96E000E0C
:100500000320EA6EC950C96AC7A0FED7C9CFEFFF62
:100510002D2AEED794948B84630E9EA8FED7AD6EE1
:1005200018509EA8FED7AD6E5DD02D6A2D500308E1
:100530000FE3036A2D50180FE96E000E0320EA6ED8
:10054000C950C96AC7A0FED7C9CFEFFF2D2AEED781
:1005500094948B84650E9EA8FED7AD6E18509EA80D
:10056000FED7AD6E3FD02D6A2D5003080FE3036A0E
:100570002D50180FE96E000E0320EA6EC950C96AAB
:10058000C7A0FED7C9CFEFFF2D2AEED794948B8456
:10059000670E9EA8FED7AD6E18509EA8FED7AD6E12
:1005A00021D02D6A2D5003080FE3036A2D50180F38
:1005B000E96E000E0320EA6EC950C96AC7A0FED7D3
:1005C000C9CFEFFF2D2AEED794948B84690E9EA895
:1005D000FED7AD6E18509EA8FED7AD6E03D0949492
:1005E0008B8400D093928A92366A359235A23DD0A0
:1005F00093908A80350E376EB6DD94948B94C950F3
:100600007F0EC96EC7A0FED72C6A2C50040810E3D9
:10061000036A2C50220FE96E000E0320EA6EEFCF22
:1006200037F0C95037C0C9FFC7A0FED72C2AEDD775
:1006300094948B8447DE30501308FCE03050160849
:1006400003E13B0E376E8FDD2C6A2C5004080AE361
:10065000036A2C50220FE96E000E0320EA6EEF6A47
:0E0660002C2AF3D7359293908A90DFD60300B0
:020000040030CA
:0E00000000081E1F008381000FC00FE00F409C
:00000001FF
;PIC18F4620
