:020000040000FA
:04000000CCEF00F051
:08000800056ED8CF06F0E0CF31
:1000100007F00001E9CF0DF0EACF08F0E1CF09F0D9
:10002000E2CF0AF0D9CF0BF0DACF0CF0F3CF14F017
:10003000F4CF15F0FACF16F000C00FF001C010F0A9
:1000400002C011F003C012F004C013F09DAA2CEFFF
:1000500000F09EBA71EF00F00FC000F010C001F088
:1000600011C002F012C003F013C004F00E8E0DC0D8
:10007000E9FF08C0EAFF09C0E1FF0AC0E2FF0BC0C8
:10008000D9FF0CC0DAFF14C0F3FF15C0F4FF16C08F
:10009000FAFF055007C0E0FF06C0D8FF1000949497
:1000A0008B94C95026C0C9FFC7A0FED794948B84F7
:1000B000AFEF00F0EA6A260EE96EEF5011E00A0E8B
:1000C000016EBF0E006E0400002EFDD7012EF9D781
:1000D0005E0E006E002EFED700D00400EF2EEFD78C
:1000E000000C9EAAFED7AE50670A07E00E0A0CE08D
:1000F0000C0A11E0060A18E031D09EAAFED7AECF56
:1001000019F019C026F0CBD79EAAFED7AE506908C9
:1001100001E1FF0024D0650E9EA8FED7AD6E650EEE
:100120009EA8FED7AD6E1BD09EAAFED7AECF1AF00A
:100130001A5005E0FF0A06E0F00A07E00ED0939A95
:100140008A9A0CD0939A8A8A09D0939A8A9A320E04
:10015000266EB0DF939A8A8A01D000D000D09E9A92
:100160002CEF00F01C509EA8FED7AD6E2250256EDD
:100170009EA8FED7AD6E2150256E9EA8FED7AD6E0F
:100180002450256E9EA8FED7AD6E2350256E9EA8E6
:10019000FED7AD6E24EF01F0F86AD09E0D8EEA6AAC
:1001A000E96A720ED36E400E9B6ED350B8960C0E59
:1001B000AF6EA20EAC6E900EAB6EC150C00B0F09AD
:1001C000C16E070EB46E196A1A6AAA0E1C6E9D8A59
:1001D000C00EF212C150C00B1D09C16EC050C00B41
:1001E0000709C06EC08EC280700ED36ED350C69AFF
:1001F000949A94889496300EC66E400EC76E9B8C6F
:100200000400000E016EC250C30B0110C26EC28208
:10021000C2B2FED7C3CF1DF0C4CF1EF0040E016ED4
:10022000C250C30B0110C26EC282C2B2FED7C3CF8E
:100230001FF0C4CF20F01EC022F01DC021F020C04E
:1002400024F01FC023F08ED7186AF2BE188EF29EDB
:10025000030E266E2FDF18BEF28E0400D2D70300E5
:020000040030CA
:0E0000000009181E008381000FC00FE00F40A2
:00000001FF
;PIC18F2420
