:020000040000FA
:04000000AFEF13F05B
:08000800056ED8CF06F0E950A7
:10001000076EEA50086EE150096EE2500A6ED95040
:100020000B6EDA500C6EF350146EF450156EE050F7
:100030000D6E000100500F6E0150106E0250116ED7
:100040000350126E0450136E9DAA2AEF00F09EBA60
:100050006FEF02F00F50006E1050016E1150026EE3
:100060001250036E1350046E0D50E06E0D8E07504B
:10007000E96E0850EA6E0950E16E0A50E26E0B50CC
:10008000D96E0C50DA6E1450F36E1550F46E0550A4
:1000900006C0D8FF1000F2CF0EF0F29EF76AB00F44
:1000A000F66E000EF7220900F5500EBEF28E120019
:1000B000000000000000005F0000000300030038A3
:1000C0007C7C7C38242A7F2A1243330866613649B7
:1000D0005522500005030000001C2241000041226F
:1000E0001C0014083E081408083E080800503000A0
:1000F00000080808080800606000002010080402DA
:100100003E5149453E0004027F004261514946226A
:10011000414949361814127F1027454545393E4953
:100120004949320101710907364949493626494989
:10013000493E0036360000005636000008142241C1
:100140000014141414140041221408020151090669
:100150003E4159555E7E0909097E7F494949363E2F
:10016000414141227F4141413E7F494949417F0907
:100170000909013E4141493A7F0808087F00417F53
:100180004100304040403F7F081422417F404040C2
:10019000407F020C027F7F0204087F3E4141413EC6
:1001A0007F090909061E2121215E7F0909097600C0
:1001B000F2CF0EF0F29EF76ACA0FF66E010EF7222A
:1001C0000900F5500EBEF28E12002649494932014F
:1001D000017F01013F4040403F1F2040201F7F2002
:1001E00010207F41221C22410708700807615149F5
:1001F0004543007F41000002040810200000417FB9
:10020000000402010204404040404000010204009A
:1002100020545454787F4444443838444444443847
:100220004444447F385454541804047E050508544B
:1002300054543C7F0804047800447D40002040442E
:100240003D007F1028440000417F40007C0478047A
:10025000787C0804047838444444387C1414140826
:10026000081414147C007C080404485454542004DA
:10027000043F44443C4040207C1C2040201C3C4027
:1002800030403C44281028440C5050503C446454A6
:100290004C44000836414100007F000041413608CF
:1002A000000201020402F2CF0EF0F29EF76AC00FC4
:1002B000F66E020EF7220900F5500EBEF28E120005
:1002C0004261747465727900F2CF0EF0F29EF76AA3
:1002D000E20FF66E020EF7220900F5500EBEF28E06
:1002E00012004C6576656C00F2CF0EF0F29EF76A54
:1002F000020FF66E030EF7220900F5500EBEF28EC5
:1003000012002100F2CF0EF0F29EF76A1E0FF66E79
:10031000030EF7220900F5500EBEF28E1200494E70
:100320004849424954454400F2CF0EF0F29EF76A24
:10033000420FF66E030EF7220900F5500EBEF28E44
:100340001200544F47474C450000F2CF0EF0F29E8A
:10035000F76A640FF66E030EF7220900F5500EBE21
:10036000F28E12004761696E3D00F2CF0EF0F29EF0
:10037000F76A840FF66E030EF7220900F5500EBEE1
:10038000F28E1200436C757474657200F2CF0EF039
:10039000F29EF76AA60FF66E030EF7220900F550DB
:1003A0000EBEF28E12005375707072657373696FB2
:1003B0006E00F2CF0EF0F29EF76ACC0FF66E030ECF
:1003C000F7220900F5500EBEF28E1200525332335E
:1003D0003200F2CF0EF0F29EF76AEC0FF66E030ECB
:1003E000F7220900F5500EBEF28E120020436F6E08
:1003F0006E656374696F6E00F2CF0EF0F29EF76A5D
:10040000120FF66E040EF7220900F5500EBEF28EA2
:100410001200524553455454494E472053595354A2
:10042000454D0000F2CF0EF0F29EF76A3E0FF66ED9
:10043000040EF7220900F5500EBEF28E12004D692F
:100440007373696E67212100F2CF0EF0F29EF76A96
:10045000620FF66E040EF7220900F5500EBEF28E02
:100460001200417661696C61626C6500F2CF0EF03A
:10047000F29EF76A860FF66E040EF7220900F55019
:100480000EBEF28E12005754442054696D656F758C
:100490007400F2CF0EF0F29EF76AAC0FF66E040E07
:1004A000F7220900F5500EBEF28E1200506F7765EC
:1004B000722055500000F2CF0EF0F29EF76AD00F76
:1004C000F66E040EF7220900F5500EBEF28E1200F1
:1004D000556E6B6E6F776E204576656E74009EAAC2
:1004E000FED7AECFE1F404016280E151AA081EE11B
:1004F00004009EAAFED7AECFE2F49EAAFED7AECFEE
:10050000E3F49EAAFED7AECFE4F49EAAFED7AECF08
:10051000E5F4E2C44DF0E3C44CF0E4C44FF0E5C4AC
:100520004EF0010EA327000EA42362809E9A0001C4
:100530002AEF00F0000E956EE0C48CFF93948A942D
:10054000000093928A920000000093928A82939412
:100550008A84000C93988A88DFC4E0F4EBDF000CF7
:10056000400E0401DF6F0001F5DF93988A98300E8A
:100570000401E06F0001DEDF870E0401E06F00017F
:10058000D9DF070E0401E06F0001D4DF270E04015C
:10059000E06F0001CFDF2F0E0401E06F0001CADF22
:1005A000EF0E0401E06F0001C5DF280E0401E06FCB
:1005B0000001C0DF0401E06B0001BCDFD0EF03F0FD
:1005C000440E0401DF6F0001C5DF93988A9804018F
:1005D000E06B0001AFDF0401E06B0001ABDFEF0E69
:1005E0000401E06F0001A6DFB00E0401E06F00011E
:1005F000A1DF040E0401E06F00019CDFEF0E040197
:10060000E06F000197DF0401E06B000193DF04015C
:10061000E06B00018FDF0401E06B00018BDF040160
:10062000E06B000187DF5A0E0401DF6F000192DFEB
:1006300093988A980401E06B00017CDFD1EF03F00E
:100640005B0E0401DF6F000185DF93988A98090E25
:100650000401E06F00016EDFD2EF03F00401A82D6A
:1006600006D0590EDF6F000175DF05D00401580E6A
:10067000DF6F00016FDF93988A98140E0401E06F1A
:10068000000158DF000C5D0E0401DF6F000162DF26
:1006900093988A98A8C4E0F44DDF800E0401A92540
:1006A000AA6FAAC4E0F4000145DFDDEF03F0460EB7
:1006B0000401DF6F00014EDF93988A98040E036EE9
:1006C000DD0EE96E03C0EAFFEFCFDFF4DFC4E0F434
:1006D00031DF040E036EDE0EE96E03C0EAFFEFCFDA
:1006E000DFF4DFC4E0F426DF000C040E0401AC6F7D
:1006F000B00EDD6FACC4DEF40001D9DF420E0401A0
:10070000DF6F000127DF93988A98040E0401AA6F17
:10071000B00EA96FAA512A0811E303E1A9512F08CD
:100720000DE3A851FF0DF3CFABF4ABC4E0F400012F
:1007300001DF0401A92BD8B4AA2BECD70001000CCF
:100740000401DE6BDD6B0001B2DF420E0401DF6FDE
:10075000000100DF93988A980401AA6BA96BAA5143
:1007600004080DE303E1A951AF0809E3A8C4E0F4CC
:100770000001E0DE0401A92BD8B4AA2BF0D70001B8
:10078000E6EF03F0A8C4DFF4E5DEEEEF03F09496A5
:100790008B8693948A84939A8A8A93928A82E0D6EB
:1007A0000FD74ED70401A86B000158DF040E0401D7
:1007B000A86F060EA96F000166D70401A86B00019F
:1007C00094DF200E0401A86F0001BAD7A7C4A8F4D3
:1007D00045DF4C0E0401A86F0001D4D704EF14F0DC
:1007E0000401DA51DC03F3CF01F0F4CF00F0DD03B4
:1007F000F3500026DB51DC03F3500020026E0001B1
:10080000000CFF0E956E93948A940000939A8A9A36
:1008100000000000956E83CFDCF4939A8A8A93944B
:100820008A840401DCC401F0000124EF04F0DBC47D
:10083000DEF4DAC4DDF43BDF430E0401DF6F0001B8
:1008400089DE93988A88DDD7015062EF04F0DBC41B
:10085000DEF4DAC4DDF42BDF420E0401DF6F0001A9
:1008600079DE93988A98DCC4E0F464DE9DEF04F0AE
:100870000401DB6B280EDA6FD5C4DDF4D4C4DCF4DC
:100880000001AEDF02C0DBF401C0DAF40401D331B1
:10089000036ED231026E03320232033202321F0E75
:1008A000031602500124016EDB5103220150B00FE8
:1008B000D86F040E0320D96FD9C4DBF4D8C4DAF49E
:1008C0000001B5D701C0D7F40401D62D17D0D251FD
:1008D000070B006E036A0050FF0A080FDA6F000E64
:1008E0000354DB6F010E006EDA51016E04E0D89004
:1008F0000036012EFCD70050D71317D0D251070B6A
:10090000006E036A0050FF0A080FDA6F000E0354EE
:10091000DB6F010E006EDA51016E04E0D8900036F4
:10092000012EFCD70050FF0AD717D9C4DBF4D8C476
:10093000DAF4D7C4DCF400018AD7000C010E0401FC
:10094000CA6FCB6FD06BD16BBD51C15D006EBE5114
:10095000C259036E00C0D2F403C0D3F403C003F045
:100960000050D3AF08D0000ED880D255006E000ED4
:10097000D355036E0050C86F03C0C9F4BF51C35DA7
:10098000006EC051C459036E00C0D2F403C0D3F44A
:1009900003C003F00050D3AF08D0000ED880D2556A
:1009A000006E000ED355036E0050C66F03C0C7F42F
:1009B000C251BE5D06E303E1BD51C15D02E2FF0E1F
:1009C000CA6FC451C05D06E303E1BF51C35D02E2DB
:1009D000FF0ECB6FC751C95D63E303E1C651C85D2C
:1009E0005FE3D890C637C737C851C65D006EC9519E
:1009F000C759036E00C0CCF403C0CDF4C851CC5D20
:100A0000CE6FC951CD59CF6FD151C95D48E303E1D4
:100A1000D051C85D44E3BEC4D3F4BDC4D2F4C0C455
:100A2000D5F4BFC4D4F4C5C4D6F4000121DF040159
:100A3000CDBF01D012D0C651CC27C751CD23036AF8
:100A4000CA51006E00BE0306BD25016EBE510322D1
:100A500001C0BDF403C0BEF41ED0CE51CC27CF518F
:100A6000CD23036ACA51006E00BE0306BD25016E88
:100A7000BE51032201C0BDF403C0BEF4036ACB51D2
:100A8000006E00BE0306BF25016EC051032201C0E7
:100A9000BFF403C0C0F4D02BD8B4D12BB5D75ED0EF
:100AA000D890C837C937C651C85D006EC751C959FB
:100AB000036E00C0CCF403C0CDF4C651CC5DCE6F44
:100AC000C751CD59CF6FD151C75D48E303E1D05134
:100AD000C65D44E3BEC4D3F4BDC4D2F4C0C4D5F4EF
:100AE000BFC4D4F4C5C4D6F40001C2DE0401CDBF36
:100AF00001D012D0C851CC27C951CD23036ACB51A4
:100B0000006E00BE0306BF25016EC051032201C066
:100B1000BFF403C0C0F41ED0CE51CC27CF51CD239B
:100B2000036ACA51006E00BE0306BD25016EBE51A8
:100B3000032201C0BDF403C0BEF4036ACB51006EB2
:100B400000BE0306BF25016EC051032201C0BFF4E1
:100B500003C0C0F4D02BD8B4D12BB5D70001000C02
:100B60000401A76BA751EE085BE3D36BA7C4D2F4D3
:100B7000D56B020ED46F010ED66F000179DE040131
:100B8000D36BA7C4D2F4D56B030ED46F010ED66F0E
:100B900000016EDE0401D36BA7C4D2F4D56BED0E59
:100BA000D46F010ED66F000163DE0401D36BA7C4BE
:100BB000D2F4D56BEC0ED46F010ED66F000158DE67
:100BC0000401D36B020ED26FD56BA7C4D4F4010E0F
:100BD000D66F00014DDE0401D36B030ED26FD56BCF
:100BE000A7C4D4F4010ED66F000142DE0401D36B1A
:100BF000EC0ED26FD56BA7C4D4F4010ED66F0001F2
:100C000037DE0401D36BED0ED26FD56BA7C4D4F4DD
:100C1000010ED66F00012CDE180E0401A727A2D703
:100C20000400A76BA751EE0815E3A86BA851EE08C6
:100C30000EE3D36BA7C4D2F4D56BA8C4D4F4010ED1
:100C4000D66F000115DE180E0401A827EFD7180E85
:100C5000A727E8D7BE6B760EBD6FC06B780EBF6F4F
:100C6000C26B7A0EC16FC46B780EC36F010EC56F75
:100C7000000164DE0401BE6B780EBD6FC06B760EA2
:100C8000BF6FC26B780EC16FC46B7A0EC36F010E5B
:100C9000C56F000153DE000C0401BE6BBD6BC06B61
:100CA000BF6B010EC26F3F0EC16FC46BC36B010EF1
:100CB000C56F000143DE0401BE6BBD6BC06BEF0E60
:100CC000BF6F010EC26F3F0EC16FC46BEF0EC36FDB
:100CD000010EC56F000132DE0401BE6BBD6BC06B3F
:100CE000BF6BC26BC16BC46BEF0EC36F010EC56FE0
:100CF000000124DE0401BE6BEF0EBD6FC06BBF6B45
:100D0000C26BC16FC46BC36F010EC56F000116DEED
:100D10000401BE6B010EBD6FC06BBF6FC26BEF0EE7
:100D2000C16FC46B010EC36FC56F000107DE040104
:100D3000BE6B010EBD6FC06BEE0EBF6FC26BEF0ED0
:100D4000C16FC46BEE0EC36F010EC56F0001F6DDFF
:100D50000401BE6B010EBD6FC06BBF6BC26BC16F78
:100D6000C46BEF0EC36F010EC56F0001E7DD040118
:100D7000BE6BEE0EBD6FC06BBF6BC26BC16FC46B41
:100D8000EF0EC36F010EC56F0001D8DD010E040127
:100D9000BE6F3F0EBD6FC06BBF6B010EC26F3F0ECB
:100DA000C16FC46BEF0EC36F010EC56F0001C6DDCE
:100DB0000401BE6BF00EBD6FC06B300EBF6F010E35
:100DC000C26F3F0EC16FC46B300EC36F010EC56F93
:100DD0000001B4DD0401BE6BF00EBD6FC06B600E90
:100DE000BF6F010EC26F3F0EC16FC46B600EC36F49
:100DF000010EC56F0001A2DD0401BE6BF00EBD6FD8
:100E0000C06B900EBF6F010EC26F3F0EC16FC46BFF
:100E1000900EC36F010EC56F000190DD0401BE6B23
:100E2000F00EBD6FC06BC00EBF6F010EC26F3F0EE4
:100E3000C16FC46BC00EC36F010EC56F00017EDDB4
:100E4000000CB3C403F00401B2C4E9FFB3C4EAFF69
:100E5000EF52D8B4F3D0B3C403F0B2C4E9FFB3C4C3
:100E6000EAFFEF50520827E3B3C403F0B2C4E9FF2E
:100E7000B3C4EAFF200EEF5C050DF350036AC16FA7
:100E8000040EEA6EBA0EE96EC56BC1C4C4F4F2CFAB
:100E9000C2F4F29E050E016EF76AC15100014BECDF
:100EA00000F00A000900F5CFEEFF012EFBD7040188
:100EB000C2BFF28E35D0B3C403F0B2C4E9FFB3C4ED
:100EC000EAFFEF507E0827E3B3C403F0B2C4E9FFA2
:100ED000B3C4EAFF530EEF5C050DF350036AC16F14
:100EE000040EEA6EBA0EE96EC56BC1C4C4F4F2CF4B
:100EF000C2F4F29E050E016EF76AC1510001D8ECF2
:100F000000F00A000900F5CFEEFF012EFBD7040127
:100F1000C2BFF28E05D0BA6BBB6BBC6BBD6BBE6B38
:100F2000B3C403F0B2C4E9FFB3C4EAFFEF500A0A46
:100F3000000103E0070A0BE00ED00401B451070DD5
:100F4000F350010FB027000EB1236FD00001040150
:100F5000AF6BAE6B6AD00401B451050DF350AE25F2
:100F6000BF6F000EAF21C06F00080EE2FF0A03E161
:100F7000BF513F0809E2AF6BAE6BB451070DF350A0
:100F8000010FB027000EB123B66BB65104084DE334
:100F9000B76BB751060843E3036AB651BA0FE96E5F
:100FA000040E0320EA6EEFCFBFF4BFC400F0B751C8
:100FB000016E04E0D8900032012EFCD700A02DD0A5
:100FC000B86BB451B85D29E2B96BB451B95D23E295
:100FD000B951AE25BF6F000EAF21C06FB751B4033A
:100FE000F350B025C16F000EB121C26FB851C125B9
:100FF000C36F000EC221C46FC0C4D3F4BFC4D2F407
:10100000C4C4D5F4C3C4D4F4B5C4D6F4000130DCF0
:101010000401B92BDAD7B82BD4D7B72BBAD7B62B54
:10102000B451AE27000EAF23B0D7B22BD8B4B32B38
:10103000AE2BD8B4AF2B000104D704010001000C83
:10104000A6C4EAFFA5C4E9FF0401B9C4EFFFE92A79
:10105000D8B4EA2AEF6AA52BD8B4A62B0001000C5D
:101060000401B15359E0AA51AE5D0DE303E1AD5166
:10107000A95D09E2AAC4B6F4A9C4B5F4AEC4B8F433
:10108000ADC4B7F408D0AEC4B6F4ADC4B5F4AAC4C8
:10109000B8F4A9C4B7F4AC51B05D0DE303E1AF51AE
:1010A000AB5D09E2ACC4BAF4ABC4B9F4B0C4BCF4EF
:1010B000AFC4BBF408D0B0C4BAF4AFC4B9F4ACC484
:1010C000BCF4ABC4BBF4B651B85D25E303E1B55144
:1010D000B75D21E3BAC4B4F4B9C4B3F4B451BC5D90
:1010E00016E303E1B351BB5D12E3B6C4D3F4B5C458
:1010F000D2F4B4C4D5F4B3C4D4F4B2C4D6F4000169
:1011000038EC04F00401B32BD8B4B42BE7D7B52BDB
:10111000D8B4B62BD8D752D0AAC4BEF4A9C4BDF453
:10112000ACC4C0F4ABC4BFF4AEC4C2F4ADC4C1F42B
:10113000ACC4C4F4ABC4C3F4B2C4C5F400019EECA7
:1011400004F0AAC4BEF4A9C4BDF4B0C4C0F4AFC4D2
:10115000BFF4AEC4C2F4ADC4C1F4B0C4C4F4AFC4EF
:10116000C3F4B2C4C5F49EEC04F0AAC4BEF4A9C48E
:10117000BDF4ACC4C0F4ABC4BFF4AAC4C2F4A9C4E7
:10118000C1F4B0C4C4F4AFC4C3F4B2C4C5F49EEC9B
:1011900004F0AEC4BEF4ADC4BDF4ACC4C0F4ABC482
:1011A000BFF4AEC4C2F4ADC4C1F4B0C4C4F4AFC49F
:1011B000C3F4B2C4C5F49EEC04F004010001000CB9
:1011C000040EEA6EA80EE96EEF5012E00A0E016EF0
:1011D000BF0E006E0400002EFDD7012EF9D75E0E63
:1011E000006E002EFED7000000000400EF2EEED7A8
:1011F000000C690E9EA8FED7AD6E690E9EA8FED7A4
:10120000AD6E0401AA6B0F0EA96FAC6B500EAB6FE5
:10121000AE6BE10EAD6FB06BA00EAF6F010EB16F94
:10122000B26B00011DDF0401AA6B0F0EA96FAC6B3E
:10123000500EAB6FAE6BE10EAD6FB06BA00EAF6F2B
:10124000B16B010EB26F00010BDF0401A66B1A0E29
:10125000A56FA76BA7510001FCEC01F00401A72BBF
:10126000006E00C0B9F40001EBDE100E0401A75DB2
:10127000F1E1AF6B1E0EAE6FB16B6E0EB06FB36B64
:101280001A0EB26F020EB46F010EB56F0001D9DDF8
:10129000020E0401A76F960EA86F000191DF0401F2
:1012A000A72FF9D7AF6B1E0EAE6FB16B6E0EB06F7E
:1012B000B36B1A0EB26F020EB46FB56B0001C1DDD5
:1012C000020E0401A76F960EA86F000179DF0401DA
:1012D000A72FF9D7AF6B1E0EAE6FB16B6E0EB06F4E
:1012E000B36B1A0EB26F020EB46F010EB56F000130
:1012F000A8DD020E0401A76F960EA86F000160DF43
:101300000401A72FF9D7AF6B1E0EAE6FB16B6E0E37
:10131000B06FB36B1A0EB26F020EB46FB56B0001F3
:1013200090DD0401AA6B0F0EA96FAC6B500EAB6F72
:10133000AE6BE10EAD6FB06BA00EAF6FB16BB26B69
:1013400000018EDE08EF15F00401AA51AC19800BE4
:10135000AE6FAAAF05D0A91FAA1FA92BD8B4AA2B7C
:10136000ACAF05D0AB1FAC1FAB2BD8B4AC2B016A14
:10137000026A006A036AAC5102E1AB5118E0100E38
:10138000AD6FD890A937AA3700360336AC51035C4D
:1013900002E1AB51005C07E3AB51005ED8A003064D
:1013A000AC51035ED88001360236AD2FEAD700007B
:1013B000AEAF05D0011E021E012AD8B4022A0001D8
:1013C000000C8E0E006EA8C401F0A7C402F0036AE0
:1013D000015209E102C001F0026A080E005E0152EA
:1013E00002E1006A08D0D89001BE04D0023601366E
:1013F0000006F9D7019E0000000C0401AB51D8B4DF
:1014000071D0006EAF51D8B46DD0002604E3810EC8
:10141000002668E204D07F0E005E64E363E0ACC4A3
:10142000B3F4B051B31BAC8FB08FAE51B203F4CF55
:10143000B5F4AD51B103F4CF03F0F3CFB4F4B2037C
:10144000F350B527F450B423000E0322AE51B1037C
:10145000F350B527F450B423000E026A032202228F
:10146000AC51B203F350B427F4500322000E022211
:10147000AC51B103F3500326F4500222000E016A6E
:101480000122AE51B003F350B427F4500322000EF2
:1014900002220122AD51B003F3500326F450022280
:1014A000000E0122AC51B003F3500226F450012289
:1014B000002A01BE05D0B4370336023601360006D5
:1014C000000EB4AF0AD0032A02220122015005E126
:1014D000025003E1035001E1002AB3BF018EB3AF14
:1014E000019E04D0006A016A026A036A00000001DA
:1014F000000C800ED8A202D00401B41B0401B96B09
:10150000BA6BB0C4B8F4B451B81BAF51D8B4E1D081
:10151000B76FB7C400F0B351D8B4E4D0B75FD8B454
:1015200084D001E23ED0B4C4BDF4BD8FB5C4BCF4D8
:10153000B6C4BBF4BA6BD890BD33BC33BB33BA333B
:10154000B72FF8D7B8AF03D0B981E0D0B991B79130
:10155000B989040EEA6EB20EE96EEBD0B999B8BF44
:101560000AD0B7A113D0BD33BC33BB33BA33002A82
:10157000D8B4C7D00BD0BDBF0CD0D890BA37BB37CA
:10158000BC37BD370006D8B4BCD0F5D7B98D6DD007
:10159000B99DB0C4B8F4B0AF02D0BD8FABD0BD9F81
:1015A000A9D0B3C4B7F4B3C400F0AF51B75FB0C4AF
:1015B000BDF4BD8FB1C4BCF4B2C4BBF4BA6BD89057
:1015C000BD33BC33BB33BA33B72FF8D7B8AF03D072
:1015D000B9839CD0B993B791B98B040EEA6EB60E5D
:1015E000E96EA7D0B99BB8BF0AD0B7A113D0BD335D
:1015F000BC33BB33BA33002AD8B483D00BD0BDBFC1
:101600000CD0D890BA37BB37BC37BD370006D8B43A
:1016100078D0F5D7B98F29D0B99FB4C4B8F4B4AF96
:1016200002D0BD8F67D0BD9F65D0B4C4BDF4BD8F5F
:10163000B5C4BCF4B6C4BBF4B8AF04D0BD9FB98583
:1016400065D0B995BA6BB791040EEA6EB20EE96E29
:1016500070D0B8BF1CD0B0C4B8F4B7A106D0BD33A9
:10166000BC33BB33BA33002A4CE0BAAF0BD0BB2B30
:1016700009E1BC2B07E1BD2B05E1BD33BC33BB3316
:10168000002A3FE0B9BD84D7B9BFC6D71CD0800EB1
:10169000BD1BBDAF04D03AD0B4C4B8F40AD0B0C4B6
:1016A000B8F4BD5306E1BC5304E1BB5302E1006A48
:1016B00021D0BDBF08D0D890BA37BB37BC37BD37B3
:1016C000002EF7D71ED0B8AF02D0BD8F13D0BD9F6C
:1016D00011D0B3C400F0B4C4BDF4B5C4BCF4B6C4F6
:1016E000BBF408D0AFC400F0B0C4BDF4B1C4BCF4C6
:1016F000B2C4BBF4BDC401F0BCC402F0BBC403F06F
:1017000034D0006A016A026A036A2FD0BA6BBB1F29
:10171000BC1FBD1FBA1FBA2B05E1BB2B03E1BC2BBD
:1017200001E1BD2BB9B112D7B9B354D7B9B589D737
:10173000B3D7EF50BB2705E3BC2B03E1BD2BD8B4D7
:10174000B781ED52EF50BC2703E3BD2BD8B4B7816E
:10175000ED52EF50EFBE01D0800ABD27D8B0B7815F
:10176000B9B9FCD6B9BB3ED774D700000001000C54
:101770008E0E006E0401AF51005EB0C402F0B1C421
:1017800001F0028E005209E0D890025202E10152AB
:1017900004E002320132002EF7D7B0AF05D0011EAF
:1017A000021E012AD8B4022A00000001000CEACF70
:1017B000AFF4E9CFAEF40401A8AF0BD02D0EB96F92
:1017C00000013EDCE9060401A71FA81FA72BD8B41F
:1017D000A82BA839F009AA6FAA27E20FAB6F320F26
:1017E000AD6FA8510F0BAB27AB27AD27E90FAC6F3F
:1017F000AC27AC27A7390F0BAC27AD27AC37AD37DB
:10180000AD1FAD37A7510F0BAD27AA37070EA96F34
:101810000A0EAC07AD27FDE3AB07AC27FDE3AA0733
:10182000AB27FDE3A907AA27FDE3040EEA6EA90E84
:10183000E96E070EAE15E926AD0EE95C21E0EF502A
:10184000006E06E1AEB91AD0AEB704D0200E03D0B8
:10185000080EAE6F300E0026EACFA8F4E9CFA7F449
:101860000050A96F00C0B9F4000120EC08F0A8C432
:10187000EAFFA7C4E9FF0401A951006EEE50DCD7CE
:10188000EF50006E300E002600C0B9F4000120ECCD
:1018900008F03DEF0DF00401A66B1A0EA56FA76BC3
:1018A000A7510001A5EC01F00401A72B006E00C0B8
:1018B000B9F4000120EC08F0050E0401A75DF0E189
:1018C000AF6BFF0EAE6FB16B410EB06FB36B1A0E04
:1018D000B26F010EB46FB56F000121EC07F0C28248
:1018E000C2B2FED7C3CF50F0C4CF51F0670E9EA84E
:1018F000FED7AD6E51C0AAF450C0A9F40401AC6B80
:10190000040EAB6F000120DD02C0A8F401C0A7F4F3
:10191000040101509EA8FED7AD6E51C0AAF450C07C
:10192000A9F4AC6B040EAB6F00010EDD02C003F036
:101930000150FF080401A76F000E0254A86FA8C44D
:10194000AAF4A7C4A9F4AC6B040EAB6F0001FCDCD5
:1019500001C05EF002C05FF0000ED8805054040158
:10196000A76F040E5154A86FA8C4AAF4A7C4A9F481
:10197000AC6B040EAB6F0001E7DC01C060F002C08D
:1019800061F061C0A8F460C0A7F41BDD03C0AEF431
:1019900002C0ADF401C0ACF400C0ABF4E10E040130
:1019A000B26F7A0EB16F140EB06F7D0EAF6F000183
:1019B00024DD00C0A7F401C0A8F402C0A9F403C04C
:1019C000AAF4D88203C0B2F402C0B1F401C0B0F4EA
:1019D00000C0AFF47B0E0401B66F140EB56F020E9B
:1019E000B46F820EB36F000184DD00C0ABF401C0A0
:1019F000ACF402C0ADF403C0AEF4D89203C0B2F4AC
:101A000002C0B1F401C0B0F400C0AFF40401B66B81
:101A1000B56B200EB46F840EB36F00016ADD03C096
:101A2000B2F402C0B1F401C0B0F400C0AFF4A0DE63
:101A300002C061F001C060F0010E0401AA6F1D0E2A
:101A4000A96FAC6B410EAB6F010EAE6F3E0EAD6F6A
:101A5000B06B4B0EAF6F010EB16FB26B000130EC8B
:101A600008F00401A66B1A0EA56F100EE96E61C096
:101A7000A8F460C0A7F400019AD6640E0401B96FFF
:101A8000000120EC08F0420E0401B96F000120ECC7
:101A900008F0010E0401AF6F1D0EAE6FB16B410E69
:101AA000B06FB36B1A0EB26F010EB46FB56F000159
:101AB00021EC07F00401AA6BF60EA96FAC6B510E76
:101AC000AB6F010EAE6F340EAD6FB06B510EAF6FDA
:101AD000010EB16FB26B000130EC08F00401AA6B8B
:101AE000F50EA96FAC6B500EAB6F010EAE6F340EDE
:101AF000AD6FB06B520EAF6FB16B010EB26F0001E4
:101B000030EC08F0F50E5E240401A76F000E5F2094
:101B1000A86FAA6BF60EA96FAC6B510EAB6FA8C481
:101B2000AEF4A7C4ADF4B06BAF6F010EB16FB26F7E
:101B3000000130EC08F0000C040062B047D0010E48
:101B40000401AA6F040EA96FAC6BAD0EAB6F010E52
:101B5000AE6F3E0EAD6FB06BB40EAF6F010EB16FD6
:101B6000B26B000130EC08F0C80E0401A86F000150
:101B7000E0EC08F00401A66B1A0EA56FA76BA75145
:101B8000000112EC02F00401A72B006E00C0B9F4B2
:101B9000000120EC08F0090E0401A75DF0E1010E40
:101BA000AF6F040EAE6FB16BAD0EB06FB36B1A0EAC
:101BB000B26F010EB46FB56F000121EC07F0C80ED3
:101BC0000401A86F0001E0EC08F0B7D762A046D08E
:101BD000010E0401AA6F040EA96FAC6BAD0EAB6FC2
:101BE000010EAE6F3E0EAD6FB06BB40EAF6F010E57
:101BF000B16FB26B000130EC08F0C80E0401A86FA1
:101C00000001E0EC08F00401A66B1A0EA56FA76BAB
:101C1000A751000124EC02F00401A72B006E00C0C4
:101C2000B9F4000120EC08F0090E0401A75DF0E111
:101C3000010EAF6F040EAE6FB16BAD0EB06FB36B34
:101C40001A0EB26F010EB46FB56F000121EC07F0F0
:101C5000C80E0401A86F0001E0EC08F06290000CCF
:101C60000401A751D8B4A6D0B36FAB51D8B4A2D059
:101C7000B35F01E205D07F0EB327D8B09BD006D06A
:101C8000810EB35FD8A096D0D8B494D0B3C400F07E
:101C9000016A026A036AB26BA8C4B1F4B18FA9C425
:101CA000B0F4AAC4AFF4190EB36FAE51AF5F0DE23A
:101CB000010EB05F0AE2B15F08E2B25F06E2B22B4A
:101CC000B12BB02BAE51AF2728D0AD51B05F12E28F
:101CD000010EB15F0FE2B25F0DE2B22BB12BAD513D
:101CE000B027AE51AF2719E3B02B17E1B12B15E1A7
:101CF000B22B13D0AC518009B15F0EE2010EB25F7E
:101D00000BE2B22BAC518009B127AD51B027E9E30A
:101D1000B12BE7E1B22BE5D70380B32F01D00BD075
:101D2000D890AF37B037B137B237D89003360236D4
:101D30000136B437BAD7B4A106D0D89001320232F6
:101D40000332B43302D0000635E0B4BF1ED0D890C1
:101D5000AF37B037B137B237AE51AF5F07E2010EE0
:101D6000B05F04E2B15F02E2B25F1AE3AD51B05F6F
:101D700005E2010EB15F02E2B25F12E3AC518009ED
:101D8000B15F03E2010EB25F0BE3032A09E1022A0D
:101D900007E1012A05E1002A0DE001320232033297
:101DA000A8C4B3F4AC51B31BB3AF02D0018E06D0BC
:101DB000019E04D0006A016A026A036A0000000101
:101DC00087EF10F0ABC4B4F4ACC4B5F40401B66B47
:101DD000A8AF02D0B48DB507A88FA751D8B4ABD0A7
:101DE0007F0EA75D61E3A76FB76B040EB86FD89045
:101DF000AA37A937A837B637B82FF9D7040EA75D89
:101E000008E2030EA75DD8A48CD00A0EB65DD8A058
:101E100088D0030EA75FB72B000142D9D8900401E8
:101E2000AA37A937A837B637000123D9020E040113
:101E3000B86FD890B633A833A933AA33B82FF9D7DF
:101E400000012ED9040E0401B86FD890AB33AC3327
:101E5000AD33AE33B82FF9D700010BD921D9ADC4BA
:101E6000AEF4ACC4ADF4ABC4ACF40401AB6B000194
:101E700000D916D9ACC4AEF4ABC4ADF40401AB6B5D
:101E8000AC6B0001F6D80401B6B7B8D7A75305E18B
:101E9000AA2BA92BA82BB62B44D0D890AA37A937A8
:101EA000A837B637A707AAD7A71FA72B7F0EA72744
:101EB000B76B040EB86FD890AA37A937A837B637D2
:101EC000B82FF9D7040EA727050EA75D36E300014A
:101ED000E7D8D8900401AA37A937A837B637D890E1
:101EE000AA37A937A837B6370001C3D8D89004015C
:101EF000AA37A937A837B637B72B030EB86FD890D3
:101F0000B633A833A933AA33B82FF9D7030EA75F86
:101F1000B6A9DAD7D890B633A833A933AA33A7071E
:101F2000D3D7A71FA72B030EA727B729B55FD8A024
:101F3000B56B010E03D0020E01D0000EB06FB4BF1E
:101F40000CD0B5BF0AD0B55308E0200EB96F000120
:101F500020EC08F00401B52FF8D7B4AD06D02D0E53
:101F6000B96F000120EC08F00401B4AF0CD0B5BF8C
:101F70000AD0B55308E0300EB96F000120EC08F02C
:101F80000401B52FF6D7B49FB49DB0A107D0B7C454
:101F9000B0F4B7C4B2F4B429B2272BD0B0A302D0A6
:101FA000B429B76FB45363E02E0EB96F000120EC73
:101FB00008F0B7C4B3F40401B307B451B35D02E34E
:101FC000B4C4B3F4B35308E0300EB96F000120EC91
:101FD00008F00401B32FF8D7B7C4B8F4B429B85F38
:101FE000D8B068D0A707B429B26FB751B25FB2C4F6
:101FF000B0F4B6C4AFF4A75105E0B16FD890AF33D9
:10200000B12FFCD7B25133E0300EAF25B96F0001CC
:1020100020EC08F00401B05108E1B45328E02E0E82
:10202000B96F000120EC08F00401B007B2071FE00F
:10203000A75105E0B16FD890AF37B12FFCD7AF51A2
:10204000B65F00012DD8D8900401AA37A937A83768
:10205000B637D890AA37A937A837B637000109D8BC
:10206000D8900401AA37A937A837B637C2D70000DD
:1020700021D00401AE51AA2705E3A92B03E1A82B27
:1020800001E1B62BAD51A92703E3A82B01E1B62B43
:10209000AC51A827D8B0B62BAB51B6270001000C25
:1020A000B6C4ABF4A8C4ACF4A9C4ADF4AAC4AEF4ED
:1020B000000C040100000001A2EF10F0040E016EFC
:1020C000C250C30B0110C26EC282C2B2FED7C4CFCF
:1020D000A8F4C3CFA7F40001E1EC09F003C059F064
:1020E00002C058F001C057F000C056F059C0AAF421
:1020F00058C0A9F457C0A8F456C0A7F40401AE6BA9
:10210000AD6B020EAC6F850EAB6F0001A9D503C09D
:1021100059F002C058F001C057F000C056F0040159
:10212000A66B1A0EA56F59C0AAF458C0A9F457C0DF
:10213000A8F456C0A7F4AE6BAD6B010EAC6FAB6FDD
:10214000000140D6560E0401B96F000120EC08F0E2
:10215000010E0401AA6F1A0EA96FAC6BD90EAB6FFA
:10216000010EAE6F3E0EAD6FB06BE30EAF6F010EA2
:10217000B16FB26B000130EC08F0010E0401AF6FDB
:102180001A0EAE6FB16BD90EB06FB36B1A0EB26F81
:10219000010EB46FB56F000121EC07F0D88259C071
:1021A000B2F458C0B1F457C0B0F456C0AFF4040153
:1021B000B66BB56B200EB46F820EB36F000179EC75
:1021C0000AF000C0A7F401C0A8F402C0A9F403C03B
:1021D000AAF403C0AEF402C0ADF401C0ACF400C078
:1021E000ABF40401B26BB16B500EB06F820EAF6FE7
:1021F0000001FDEC09F003C0B2F402C0B1F401C06B
:10220000B0F400C0AFF4B8EC0BF002C05DF001C058
:102210005CF00401A66B1A0EA56FA76BA751000115
:1022200053EC01F00401A72B006E00C0B9F40001CB
:1022300020EC08F0070E0401A75DF0E1AF6BF50E8E
:10224000AE6FB16BC30EB06FB36B1A0EB26F010EEF
:10225000B46FB56F000121EC07F00401A66B1A0EF4
:10226000A56FA76BA751000164EC01F00401A72B37
:10227000006E00C0B9F4000120EC08F0050E040166
:10228000A75DF0E1010EAF6F090EAE6FB16BCD0E21
:10229000B06FB36B1A0EB26F010EB46FB56F000161
:1022A00021EC07F0000E016EC250C30B0110C26E8C
:1022B000000C4DC053F04CC052F04FC055F04EC012
:1022C00054F0EA6A1A0EE96EF2CFA7F4F29E000EFD
:1022D00074EC01F00A000900F550EE6E0009FBE114
:1022E0000401A7BFF28EAF6B640EAE6FB16B5A0ED6
:1022F000B06FB36B1A0EB26F080EB46F010EB56FEC
:10230000000121EC07F00401BE6B780EBD6FC06BBD
:10231000460EBF6FC26BAA0EC16FC46B960EC36F21
:10232000010EC56F00019EEC04F00401BE6B780E37
:10233000BD6FC06B460EBF6FC26BC16FC46B960E94
:10234000C36F010EC56F00019EEC04F00401BE6B6B
:10235000460EBD6FC06B960EBF6FC26BAA0EC16FEB
:10236000C46B960EC36F010EC56F00019EEC04F0A6
:10237000C80E0401A86F0001E0EC08F00401BE6B78
:10238000780EBD6FC06B460EBF6FC26BAA0EC16FD9
:10239000C46B960EC36FC56B00019EEC04F0040184
:1023A000BE6B780EBD6FC06B460EBF6FC26BC16F48
:1023B000C46B960EC36FC56B00019EEC04F0040164
:1023C000BE6B460EBD6FC06B960EBF6FC26BAA0E82
:1023D000C16FC46B960EC36FC56B00019EEC04F019
:1023E0000401AF6B640EAE6FB16B5A0EB06FB36B7E
:1023F0001A0EB26F080EB46FB56B000121EC07F036
:10240000000C0400EA6A1A0EE96EF2CFA7F4F29EFD
:10241000000E82EC01F00A000900F550EE6E000992
:10242000FBE10401A7BFF28EAF6BFA0EAE6FB16B8A
:102430001E0EB06FB36B1A0EB26F010EB46FB56B98
:10244000000121EC07F0630E9EA8FED7AD6E0F0EC3
:102450009EA8FED7AD6EEA6A1A0EE96EF2CFA7F417
:10246000F29E000E94EC01F00A000900F550EE6EA9
:102470000009FBE10401A7BFF28E010EAF6F040E4D
:10248000AE6FB16B1E0EB06FB36B1A0EB26F010E52
:10249000B46FB56F000121EC07F0040E0401A76FC3
:1024A000FA0EA86F0001E0EC08F00401A72FF8D79E
:1024B000010EAF6F040EAE6FB16B1E0EB06FB36B3B
:1024C0001A0EB26F010EB46FB56B000121EC07F06C
:1024D000176AF2BE178EF29E9E8A17BEF28EE9DE52
:1024E000000C020E0401A95DAC6F040EAA5DAD6F75
:1024F000AF6BACC4AEF4B16BADC4B0F4B36B180E3B
:10250000B26F010EB46FABC4B5F4000121EC07F05B
:10251000000C016A026A006A036A0401AA5102E11E
:10252000A95118E0100EAB6FD890A737A837003626
:102530000336AA51035C02E1A951005C07E3A951EB
:10254000005ED8A00306AA51035ED8800136023689
:10255000AB2FEAD700000001000C0401A46BA36BB1
:10256000A86B000175EC03F0B0EC05F04CEC06F044
:10257000A5DD4BEC0CF0EA6A1A0EE96EF2CFA7F477
:10258000F29E000EB5EC01F00A000900F550EE6E67
:102590000009FBE10401A7BFF28EAF6BFF0EAE6F27
:1025A000B16B0A0EB06FB36B1A0EB26F010EB46F3F
:1025B000B56F000121EC07F0EA6A1A0EE96EF2CF5E
:1025C000A7F4F29E000EC6EC01F00A000900F550D7
:1025D000EE6E0009FBE10401A7BFF28EAF6BF50EB2
:1025E000AE6FB16B140EB06FB36B1A0EB26F010EFB
:1025F000B46FB56F000121EC07F00401A66B1A0E51
:10260000A56FA76BA7510001D9EC01F00401A72B1E
:10261000006E00C0B9F4000120EC08F0050E0401C2
:10262000A75DF0E1AF6BF50EAE6FB16B960EB06FBC
:10263000B36B1A0EB26F010EB46FB56F000121ECCF
:1026400007F00401A66B1A0EA56FA76BA751000136
:10265000E9EC01F00401A72B006E00C0B9F4000101
:1026600020EC08F00B0E0401A75DF0E1AF6BF50E56
:10267000AE6FB16B9E0EB06FB36B1A0EB26F010EE0
:10268000B46FB56F000121EC07F0000C020E0401DD
:10269000A85F0EE3040EEA6EA80EE96EEF5008E0A4
:1026A00005D000000000000000000400EF2EF9D764
:1026B000000102EF17F062A603D062964EDF02D04F
:1026C00062864BDF6CEF13F0938081B005D099DE0A
:1026D000938081B001D0EFD797EF17F0C282C2B2DA
:1026E000FED7C4CFA8F40401C3CFA7F4060E50242C
:1026F000016E000E5120036E015003AE03D0A8AF4F
:1027000027D002D0A8BF07D00350A85D04E320E182
:10271000A751015C1DE3C282C2B2FED7C3CFA9F4A8
:10272000C4CFAAF4060E505C006E000E5158036E22
:1027300000C001F0C4AE03D003AE0AD002D003BE85
:102740000BD0AA51035C08E303E10150A95D04E248
:1027500000014BEC0CF00401000199EF17F0F86A4E
:10276000D09E0D8EEA6AE96AC150C00B0F09C16E96
:10277000070EB46E92500400B450A19CB8960C0E93
:10278000AF6E220EAC6E900EAB6E230E186E196AF1
:102790004C6A080E4D6E4E6A4F6E320E506E516A84
:1027A000170E526E080E536E270E546E080E556E9D
:1027B000566A576A586A596A5A6A0F0E5B6E629077
:1027C0006292629462860401A36BA46BA56BA66BF4
:1027D0009D8AC00EF212C150C00B0D09C16EC050CF
:1027E000C00B0709C06EC08EC280000E016EC250C1
:1027F000C30B0110C26E700ED36E860ED56E010E25
:10280000A76F0001C7EF03F09B8C04000401A86BC5
:10281000000175EC03F0B0EC05F04CEC06F0EA6A50
:102820001A0EE96EF2CFA7F4F29E000EB5EC01F09D
:102830000A000900F550EE6E0009FBE10401A7BF94
:10284000F28EAF6BFF0EAE6FB16B0A0EB06FB36B53
:102850001A0EB26F010EB46FB56F000121EC07F0D4
:10286000EA6A1A0EE96EF2CFA7F4F29E000EC6ECE9
:1028700001F00A000900F550EE6E0009FBE10401C9
:10288000A7BFF28EAF6BF50EAE6FB16B140EB06FCB
:10289000B36B1A0EB26F010EB46FB56F000121EC6D
:1028A00007F00401A66B1A0EA56FA76BA7510001D4
:1028B00053EC01F00401A72B006E00C0B9F4000135
:1028C00020EC08F0070E0401A75DF0E1AF6BF50EF8
:1028D000AE6FB16BC30EB06FB36B1A0EB26F010E59
:1028E000B46FB56F000121EC07F00401A66B1A0E5E
:1028F000A56FA76BA751000164EC01F00401A72BA1
:10290000006E00C0B9F4000120EC08F0050E0401CF
:10291000A75DF0E1010EAF6F090EAE6FB16BCD0E8A
:10292000B06FB36B1A0EB26F010EB46FB56F0001CA
:1029300021EC07F00401A66B1A0EA56FA76BA75137
:102940000001D9EC01F00401A72B006E00C0B9F41E
:10295000000120EC08F0050E0401A75DF0E1AF6B6B
:10296000F50EAE6FB16B960EB06FB36B1A0EB26F01
:10297000010EB46FB56F000121EC07F00401A66BE6
:102980001A0EA56FA76BA7510001E9EC01F0040135
:10299000A72B006E00C0B9F4000120EC08F00B0E6C
:1029A0000401A75DF0E1AF6BF50EAE6FB16B9E0E4B
:1029B000B06FB36B1A0EB26F010EB46FB56F00013A
:1029C00021EC07F00401A66B1A0EA56FA76BA751A7
:1029D0000001A5EC01F00401A72B006E00C0B9F4C2
:1029E000000120EC08F0050E0401A75DF0E1AF6BDB
:1029F000FF0EAE6FB16B410EB06FB36B1A0EB26FBC
:102A0000010EB46FB56F000121EC07F0F9EF08F08B
:102A1000B0EC05F04CEC06F04BEC0CF09CEC0DF03F
:102A20005EEC10F0D0500E0BD092040A03E0080ABE
:102A30003DE078D0EA6A1A0EE96EF2CFA7F4F29E72
:102A4000000E36EC02F00A000900F550EE6E0009A7
:102A5000FBE10401A7BFF28EAF6BFA0EAE6FB16B54
:102A6000730EB06FB36B1A0EB26F010EB46FB56F09
:102A7000000121EC07F0040E0401A76FFA0EA86F05
:102A80000001E0EC08F00401A72FF8D7AF6BFA0EB5
:102A9000AE6FB16B730EB06FB36B1A0EB26F010EE7
:102AA000B46FB56B000121EC07F078D0EA6A1A0E1A
:102AB000E96EF2CFA7F4F29E000E49EC02F00A0094
:102AC0000900F550EE6E0009FBE10401A7BFF28E8C
:102AD000AF6BFA0EAE6FB16B730EB06FB36B1A0EB5
:102AE000B26F010EB46FB56F000121EC07F0040E58
:102AF0000401A76FFA0EA86F0001E0EC08F00401D2
:102B0000A72FF8D7AF6BFA0EAE6FB16B730EB06F25
:102B1000B36B1A0EB26F010EB46FB56B000121ECEE
:102B200007F03CD0EA6A1A0EE96EF2CFA7F4F29EE3
:102B3000000E5BEC02F00A000900F550EE6E000991
:102B4000FBE10401A7BFF28EAF6BFA0EAE6FB16B63
:102B5000730EB06FB36B1A0EB26F010EB46FB56F18
:102B6000000121EC07F0040E0401A76FFA0EA86F14
:102B70000001E0EC08F00401A72FF8D7AF6BFA0EC4
:102B8000AE6FB16B730EB06FB36B1A0EB26F010EF6
:102B9000B46FB56B000121EC07F000D00401A46B09
:102BA000A36B6290040052504C5CA76F53504D5879
:102BB000A86F780EA725696E000EA8216A6E545082
:102BC0004E5CA76F55504F58A86F780EA72500018F
:102BD000A76F000E0401A8210001A86F010E5A6E14
:102BE0005A505B5C20E3D8905A34036A670FE96E51
:102BF000000E0320EA6EECCF03F0ED52EF50692691
:102C000003506A22D8905A34036AA50FE96E000E69
:102C10000320EA6EECCF03F0ED52EF50A7270350EC
:102C2000A8235A2ADDD76AC0AAF469C0A9F404010E
:102C3000AC6B5AC0ABF40001A4EC09F002C06AF01E
:102C400001C069F0A8C0AAF4A7C0A9F40401AC6B44
:102C50005AC0ABF40001A4EC09F002C0A8F001C016
:102C6000A7F06ABE1AD06A5203E16950090815E25A
:102C7000A8BF13D0A85303E1A75109080EE26ABE0A
:102C800005D06A520AE16950E60807E3A8BF07D0F9
:102C9000A85303E1A751E60802E259EC11F04DBE3A
:102CA00005D04D5205E14C50310802E301EC12F021
:102CB0004FBE05D04F5205E14E50310802E301EC02
:102CC00012F04DBE0AD04D500E0807E2FF0A03E194
:102CD0004C50D20802E201EC12F04FBE0AD04F5025
:102CE0000E0807E2FF0A03E14E50D20802E201ECAF
:102CF00012F06ABE05D06A5206E16950090803E382
:102D00006A6A0A0E696EA8BF05D0A85306E1A751EA
:102D1000090803E3A86B0A0EA76F6ABE08D06A52BF
:102D200003E16950E60803E26A6AE60E696EA8BF2D
:102D300008D0A85303E1A751E60803E2A86BE60E0A
:102D4000A76F62B60BD069C0A9F4A7C0AAF4010EA0
:102D50000401AB6F000171EC12F032D0A4C4A8F4EE
:102D6000A3C4A7F40401AA6B0F0EA96F000189EC9C
:102D700012F002C0A8F401C0A7F401C0A9F469C010
:102D8000AAF4010E0401AB6F000171EC12F0A4C4AF
:102D9000A8F4A3C4A7F40401AA6B0F0EA96F000145
:102DA00089EC12F002C0A8F401C0A7F401C0A9F494
:102DB000A7C0AAF4010E0401AB6F000171EC12F080
:102DC00062A612D00401A4510C08D8A002D00001C0
:102DD0000BD0FF0A06E1A3517A08D8A002D0000167
:102DE00003D00001ADEC12F00400040E0401A86F42
:102DF0000001E0EC08F0090E0401A76F6F0EA86F48
:102E0000000144D40401A72FF9D7646A1E0E636E33
:102E100064BE80D0645203E1635000087BE264C06A
:102E2000DBF463C0DAF4DD6B020EDC6F0001F0EC62
:102E300003F002C003F00150670F016E000E032281
:102E400001C0A7F4040103C0A8F4010E635CA96FDC
:102E5000000E6458AA6FAAC4DBF4A9C4DAF4DD6BCF
:102E6000020EDC6F0001F0EC03F00150670FE96E19
:102E7000000E0220EA6EECCF03F0ED52EFCFAAF481
:102E80000401A8C4EAFFA7C4E9FF03C0ECFFED52A8
:102E9000AAC4EFFF64C0DBF463C0DAF4DD6B020E9A
:102EA000DC6F0001F0EC03F002C003F00150A50F4D
:102EB000016E000E032201C0A7F4040103C0A8F4B0
:102EC000010E635CA96F000E6458AA6FAAC4DBF4FC
:102ED000A9C4DAF4DD6B020EDC6F0001F0EC03F044
:102EE0000150A50FE96E000E0220EA6EECCF03F050
:102EF000ED52EFCFAAF40401A8C4EAFFA7C4E9FF8A
:102F000003C0ECFFED52AAC4EFFF6350D8B46406CF
:102F100063067ED762B608D0A3C0A9F4E1C0AAF4C4
:102F2000AB6B000171EC12F0000164EF13F06EEF77
:102F300013F0D650D7CF03F00401A76F03C0A8F455
:102F4000A85101080AE303E1A751F30806E30001D1
:102F5000B0EC05F05EEC10F0040162B004D00001AA
:0A2F60009CEC0DF004011DD60300E7
:020000040030CA
:0E0000000009191E008381000FC00FE00F40A1
:00000001FF
;PIC18F4520
