:020000040000FA
:04000000CEEF00F04F
:08000800056ED8CF06F0E950A7
:10001000076EEA50086EE150096EE2500A6ED95040
:100020000B6EDA500C6EF350146EF450156EE050F7
:100030000D6E000100500F6E0150106E0250116ED7
:100040000350126E0450136E9DAA2AEF00F09EBA60
:100050006EEF00F00F50006E1050016E1150026EE6
:100060001250036E1350046E0D50E06E0D8E07504B
:10007000E96E0850EA6E0950E16E0A50E26E0B50CC
:10008000D96E0C50DA6E1450F36E1550F46E0550A4
:1000900006C0D8FF100094948B94C95025C0C9FFA6
:1000A000C7A0FED794948B84ADEF00F0EA6A250ECA
:1000B000E96EEF5012E00A0E016EBF0E006E0400F2
:1000C000002EFDD7012EF9D75E0E006E002EFED752
:1000D000000000000400EF2EEED7000C9EAAFED711
:1000E000AE50670A07E00E0A0CE00C0A11E0060A9F
:1000F00018E032D09EAAFED7AECF18F018C025F077
:10010000CAD79EAAFED7AE50690801E1FF0025D0EC
:10011000650E9EA8FED7AD6E650E9EA8FED7AD6E8D
:100120001CD09EAAFED7AECF19F01950000A05E0E8
:10013000FF0A06E0F00A07E00ED0939A8A9A0CD0E4
:10014000939A8A8A09D0939A8A9A320E256EAEDFE4
:10015000939A8A8A01D000D000D09E9A2AEF00F0AC
:100160001B509EA8FED7AD6E21C024F021509EA842
:10017000FED7AD6E20C024F020509EA8FED7AD6EF5
:1001800023C024F023509EA8FED7AD6E22C024F0D9
:1001900022509EA8FED7AD6E22EF01F0F86AD09EE5
:1001A0000D8EEA6AE96AC150C00B0F09C16E070ED5
:1001B000B46EB450A19CB8960C0EAF6E220EAC6E0D
:1001C000900EAB6E186A196AAA0E1B6E9D8AC00E3D
:1001D000F212C150C00B1D09C16EC050C00B0709FF
:1001E000C06EC08EC280700ED36EC69A949A9488E8
:1001F0009496300EC66E400EC76E9B8C0400000EA7
:10020000016EC250C30B0110C26EC282C2B2FED7D1
:10021000C3CF1CF0C4CF1DF0040E016EC250C30B3F
:100220000110C26EC282C2B2FED7C3CF1EF0C4CFCD
:100230001FF01DC021F01CC020F01FC023F01EC005
:1002400022F08ED7176AF2BE178EF29E030E256E2D
:0C0250002DDF17BEF28E0400D2D7030091
:020000040030CA
:0E0000000009191E008381000FC00FE00F40A1
:00000001FF
;PIC18F2420
